:020000040002F8
:1060000098EA0020C1630200C9630200CB6302006A
:10601000CD630200CF630200D163020000000000E4
:10602000000000000000000000000000D363020038
:10603000D563020000000000D7630200D9630200AC
:10604000916D0200DB630200A17102009D700200ED
:10605000AD700200DB630200ED6C0200F56E020021
:1060600079710200DB6302008D710200DB630200C4
:10607000DB630200DB630200DB630200DB63020020
:10608000DB630200E56E0200DB630200DB630200FB
:10609000DB630200DB630200BD700200DB63020011
:1060A000DB630200DB630200DB630200DB630200F0
:1060B000DB630200DB630200000000000000000060
:1060C000DB630200DB630200DB630200DB630200D0
:1060D000DB630200DB630200DB6302000000000000
:1060E00000000000000000000000000000000000B0
:1060F00000000000000000000000000000000000A0
:10610000000000000000000000000000000000008F
:10611000000000000000000000000000000000007F
:10612000000000000000000000000000000000006F
:10613000000000000000000000000000000000005F
:10614000000000000000000000000000000000004F
:10615000000000000000000000000000000000003F
:10616000000000000000000000000000000000002F
:10617000000000000000000000000000000000001F
:10618000000000000000000000000000000000000F
:1061900000000000000000000000000000000000FF
:1061A00000000000000000000000000000000000EF
:1061B00000000000000000000000000000000000DF
:1061C00000000000000000000000000000000000CF
:1061D00000000000000000000000000000000000BF
:1061E00000000000000000000000000000000000AF
:1061F000000000000000000000000000000000009F
:10620000DFF80CD000F094FB00480047159F020017
:1062100098EA002030B450E8012F93B2C489234497
:106220008489A34228BF1B1B0489A34202BFBFF37A
:106230002F8F002007E0C3EA020340E80134002C5E
:10624000E9D14FF001000A6030BC704750E8012FDF
:10625000C2EA024240E801210029F7D1704730B478
:1062600050E8022F1FFAA2F3C488A34202BFBFF373
:106270002F8F00200DE0C48923448489A34228BFC6
:106280001B1BC2EA034340E80234002CE8D14FF064
:1062900001000A6030BC704750E8022FC2EA224277
:1062A00040E802210029F7D17047034653E8022F46
:1062B000D988B2EB324F4FF0000017BF92B241EADB
:1062C000014142EA014104E05A68B2EB324F08BF93
:1062D000012043E80212002AE8D1704730B4044696
:1062E00054E8000F0D4644E80053002BF8D1156028
:1062F00030BC704730B4044654E8000F40EA010552
:1063000044E80053002BF7D1156030BC704730B41F
:10631000044654E8000F00EA010544E80053002B4E
:10632000F7D1156030BC704730B4044654E8000F14
:1063300080EA010544E80053002BF7D1156030BC1A
:10634000704730B4044654E8000F00EB010544E800
:106350000053002BF7D1156030BC704730B40446B1
:1063600054E8000FA0EB010544E80053002BF7D1DF
:10637000156030BC704770B404464FF0000054E81C
:10638000006F0D68AE4207BF44E80023012044E8D7
:1063900000630E60002B1CBF0020F0E770BC70474C
:1063A00030B4044654E8000F88422CBF451A054615
:1063B00044E80053002BF5D1156030BC7047000055
:1063C0000648804706480047FEE7FEE7FEE7FEE78F
:1063D000FEE7FEE7FEE7FEE7FEE7FEE7F5700200F8
:1063E000016202002DE9F05F0546002092469B46BF
:1063F00088460646814640241BE0284641464746DB
:10640000224600F0E5F953465A46C01A914110D38E
:1064100011461846224600F016F82D1A67EB0108BF
:106420004F4622460120002100F00DF817EB00092D
:106430004E41201EA4F10104DFDC484631462A46C5
:106440004346BDE8F09F202A04DB203A00FA02F11F
:10645000002070479140C2F1200320FA03F3194352
:106460009040704700487047F8EB020010B50446B2
:10647000FFF7F8FF0068005D00F0010010BD40EA82
:1064800001039B0703D009E008C9121F08C0042AB2
:10649000FAD203E011F8013B00F8013B521EF9D299
:1064A0007047D2B201E000F8012B491EFBD27047C1
:1064B0000022F6E710B513460A4604461946FFF7D0
:1064C000F0FF204610BD421C10F8011B0029FBD133
:1064D000801A704710B5002200E0521C835C8C5C6F
:1064E000A34201D1002BF8D1D8B2E1B2401A10BDBD
:1064F00030B504460020034600E05B1C934203D203
:10650000E05CCD5C401BF8D030BD034611F8012B98
:1065100000F8012B002AF9D1184670470FB400B5D6
:106520008DB010A909900B9000914FF0FF300A90A8
:1065300000200C9005480690054807906A4609A877
:106540000F9900F069F90DB05DF814FB3568020091
:10655000536802002DE9FF5F1D464FF0FF3BD5E970
:10656000014691465F464FF00008A9697F1C0198DB
:106570008847296A824688470028F6D1BAF1FF3F4A
:106580000CD024F4C064002E19DD600614D5BAF1D5
:106590002B0F09D0BAF12D0F0ED103E0584604B0ED
:1065A000BDE8F09F44F48064A9697F1C0198884786
:1065B000761E8246002E02DDBAF1300F03D0B9F10B
:1065C000000F26D032E0A969761E44F400747F1CC7
:1065D000019888478246002E05DDBAF1780F06D073
:1065E000BAF1580F03D0B9F1000F10D01EE0B9F185
:1065F000000F02D0B9F1100F18D1A969761E24F44A
:1066000000747F1C019888478246102002E0082011
:1066100000E00A20814609E008FB0908A969761E06
:1066200044F400747F1C019888478246002E05DDE3
:106630004946504600F0DCF80028EDDAE969019897
:106640008847A00502D46FF00100A8E7E00725D134
:10665000600613D5600502D5C8F1000000E0404691
:1066600029680A1D2A600968220501D5087015E00D
:10667000220701D5088011E008600FE02868011D9D
:1066800029600068210502D580F8008006E0210716
:1066900002D5A0F8008001E0C0F8008038467EE70F
:1066A0002DE9FE4F81EA030404F0004421F000418B
:1066B00000944FF0000B23F0004350EA01045ED039
:1066C00052EA03045BD0C3F30A54C1F30A552C44C5
:1066D000A4F2F3340194A0FB0254C1F3130141F47A
:1066E0008011C3F3130343F4801301FB024400FB46
:1066F000034E840A970A44EA815447EA8357A4FB6D
:10670000076802958D0A05FB07854FEA932C04FB69
:106710000C542705029D4FEA065847EA1637B5EB99
:1067200008056EEB070C870E920E47EA811742EAC6
:106730008312A7FB0201B6EB0B0164EB00042B0DE7
:1067400043EA0C335E1844EB1C50DA465146E7FB33
:106750000201C5F313044FEA0B3343EA14534FEA23
:106760000432019C43EA0603A4F10C040294009C49
:10677000CDE900B400F08DF803B0BDE8F08F002043
:106780000146F9E70EB540F2334102910021CDE90F
:1067900000110A460B4600F07CF803B000BDC1F3BF
:1067A0000A5210B5C1F3130140F2FF3341F48011D6
:1067B0009A4201DA002010BD40F233439A42A2F21D
:1067C000334203DC524200F003F810BD904010BD8C
:1067D000202A04DB203A21FA02F00021704721FA36
:1067E00002F3D040C2F1200291400843194670479D
:1067F0003A2800D2303820F02002412A01D3A2F1F9
:106800003700884201D34FF0FF30704702681144CF
:106810001378016018467047D160044951610449FA
:10682000116200211161114600F094B80D68020058
:106830006D640200426842B1016811F8013B23B166
:10684000521EC0E90012184670470121C160881E1F
:10685000704742685AB1C368016843B983688B4284
:1068600005D0491E521CC0E90012002070474FF0AD
:10687000FF30704710B5141E73F1000408DA401C95
:1068800041F1000192185B411A4301D120F001004F
:1068900010BD2DE9F04D92469B4611B1B1FA81F23F
:1068A00002E0B0FA80F220329046FFF7CCFD0446B9
:1068B0000F4640EA0A0041EA0B0153465A46084394
:1068C00013D0114653EA010019D0C8F140025046D6
:1068D000FFF77EFF05460E46504659464246FFF7F3
:1068E000B2FD084305D0012004E020463946BDE84A
:1068F000F08D0020054346EAE0762C4337430A98A2
:106900006305E40AA0EB08000022FD0A44EA4754AC
:106910000A3002D500200146E9E701051019694156
:10692000DDE9084500196941BDE8F04DA2E7000026
:10693000064C074D06E0E06840F0010394E80700CC
:1069400098471034AC42F6D3FFF75EFCE4F4020043
:1069500004F502002DE9F34F8BB04FF0000801F170
:106960000C000C464FF0010B46460DF1080A019051
:106970006269012101989047051E2DD0252D2CD04C
:10698000216A8847C0B16269012101989047216A54
:1069900088470028F7D1411E62690198904700E0BE
:1069A000761CA1690B988847216A88470028F7D18F
:1069B000E1690B988847DBE7A1690B988847074690
:1069C000A84201D1761CD3E7E1690B9888477F1C68
:1069D00002D1B8F1000F6FD046E1002762693D4651
:1069E0003946019890472A2804D16269012101980B
:1069F00090470125DFF88492626901210198904750
:106A0000A0F130010A290AD24F45E5DC07EB8701E6
:106A100000EB4107303FDFD445F01005ECE7E90615
:106A200001D46FF000476C280AD04C2814D0682895
:106A300015D06A280DD074281CD07A281AD01DE0F1
:106A400062690121019890476C2802D045F0040545
:106A500014E045F002050DE045F020050AE062690A
:106A6000012101989047682802D045F0080505E00B
:106A700045F400656269012101989047C4E9015716
:106A800065283DD019DC58287AD00CDC452837D051
:106A900004DC252826D0412831D131E046282FD0EA
:106AA00047282CD12CE05B2877D0612828D0632898
:106AB0007CD0642823D15AE0D0E06F2848D008DC8D
:106AC00066281DD067281BD0692821D06E2816D1D2
:106AD00027E0702845D0732868D0752847D07828DB
:106AE0000DD14DE0A1690B988847054625283FF454
:106AF00069AFE1690B9888476D1C3FF46AAFB3E05A
:106B000023466A466FF001000B99AFF300809EE0C8
:106B100045F040006060A80723464FF0000236D4DD
:106B20003EE0E8077FF447AF2068011D2160006860
:106B3000290501D506701BE7290701D5068017E74F
:106B4000A90703D5F117C0E9006111E706600FE757
:106B500045F040006060A80723464FF0080216D4B5
:106B60001EE040F60E0125EA0100606016E045F0E7
:106B700040006060A80723464FF00A0207D40FE0E8
:106B800045F040006060A80708D5234610226FF04A
:106B900001000B99AFF3008059E007E02346102273
:106BA0006FF001000B99FFF7D5FC50E04FF00009A2
:106BB0004F464B46632802D05B2806D040E0E806EB
:106BC00001D40120A06001273AE062690121019807
:106BD00090475E2805D14FF0010962694946019846
:106BE0009047216939B900210A46534643F82120CC
:106BF000491C0829FADBB0B3216969B9C11700EB58
:106C0000D16253110AEB830122F01F02821A012084
:106C10000B68904003430B60626901210198904723
:106C20005D28E8D1B9F1000F09D00020514651F894
:106C30002020D24341F82020401C0828F7DB02AB7B
:106C4000224600976FF001000B99AFF300800028F7
:106C50000CDA401C08D1BBF1000F05D04FF0FF301B
:106C60000DB0BDE8F08FFFE74046F9E7E90701D135
:106C700008F1010806444FF0000B79E6CCCCCC0CAF
:106C800070B58C1810F8015B15F0070301D110F8EE
:106C9000013B2A1106D110F8012B03E010F8016B1B
:106CA00001F8016B5B1EF9D12B0705D40023521E9E
:106CB0000DD401F8013BFAE710F8013BCB1A921C06
:106CC00003E013F8015B01F8015B521EF9D5A14204
:106CD000D8D3002070BD10B50121182004F052F95E
:106CE0000121BDE81040182004F08AB92DE9F843CD
:106CF0000025DFF894804FF4807601242F4600951C
:106D0000304604F093F938B1D8F80403204203D098
:106D1000304604F081F92543361D64007F1CB6B26D
:106D2000082FEDD34FF4BE74204604F07FF948B12C
:106D3000204604F071F945F000456A460121002023
:106D400004F0FCF815F0FF0F16D0012600242E42A7
:106D50000ED008EB8401D1F81005D1F81015C0F35E
:106D600004200A4AC1F3014152F8242002B190479D
:106D70007600641C082CEAD3002D02DA684606F07F
:106D800059F8BDE8F8830000006000402CC00020E6
:106D900070B54FF48076304603F06AFE114CB505AD
:106DA00060B1304603F06BFE0120C5F8080360793E
:106DB00020B9012060712168002088474FF4827655
:106DC000304603F055FE00280AD0304603F057FE47
:106DD0000220C5F808032168BDE87040012008477B
:106DE00070BD0000ACB300202DE9F8430025314F01
:106DF000314C4FF0010853E030483149401AC00887
:106E0000032101EB004669462E4806F06FFB304631
:106E10009DF800202CA104F0F9FA2078012804D074
:106E2000022818D0062839D130E09DF80000B1289A
:106E300004D0062809D0152809D00AE00020607087
:106E4000FF20A070022020702AE0032528E00425FE
:106E500026E0052524E06078FE2814D29DF8001075
:106E6000395410B1A2784A40A270401CC0B2607080
:106E70003978884201D106202070124806F028FB9C
:106E80000028C0D112E084F80080E2E79DF80000FD
:106E9000A178884201D1072500E0052584F800800B
:106EA000084806F015FB08B1002DA5D02846BDE81E
:106EB000F8830000EAB4002068AD0020A4F50200C9
:106EC00014F5020010B800204461746120726563FB
:106ED00069766520506F6C6C5278427566663A2010
:106EE0002564000002490248091F09680068084734
:106EF0001CB400202DE9FE434FF48278404604F094
:106F000051FD4C4F00254C4C012600B3404604F087
:106F100051FD94F82E0010B194F82F10D1B18DF8D6
:106F20000050616801912189ADF80810E26832B122
:106F3000218B618362602181E56010B102E02574DC
:106F400000E03E6021686846884784F82F5094F836
:106F50002E0060B34FF48077384604F023FD30B341
:106F6000384604F027FD628B94F82D108A420AD926
:106F7000A2EB010080B260832289A2EB000062686C
:106F800002EB400005E007D1E06828B184F82F60EB
:106F9000658304F0F5FC04E08A4202D184F82F6096
:106FA0006583404604F006FD2248001D06604FF44C
:106FB0008877384604F0F6FC48B1384604F0FAFC0D
:106FC000257402208DF800002168684688474FF438
:106FD0008A77384604F0E6FC28B1384604F0EAFC2B
:106FE0002574BDE8FE834FF000484FF48C79676943
:106FF0001DE000BFB7FA87F028FA00F109EB800521
:107000008F43284604F0CEFC88B1284604F0D2FC19
:10701000A5F58C75E8088DF8040045F38000401C48
:107020008DF800608DF80500216868468847002FBC
:10703000E0D1D6E70070004028C2002000F0A6BAD8
:1070400070B50E46144900EB400001EBC005144634
:10705000E86A183520B101280FD0022805D113E0C5
:10706000284600F0C7FAA04201D2002411E02246CF
:107070003146284600F003FB0BE0284600F0BAFA40
:10708000A042F4D20446F2E73146284600F0CAFA9C
:107090000446204670BD000010C800200149024887
:1070A00006F058BFD8C000200030004002494FF021
:1070B000402006F04FBF00000CC1002004F02ABEA3
:1070C00070B50121182003F05DFF0021182003F0A6
:1070D00097FF14244FF47A75284604F073FF641E5A
:1070E000FAD10121182003F08BFFBDE870401E206B
:1070F00004F068BF1B4800B5016841F470010160ED
:10710000BFF34F8FBFF36F8F4FF01022D2F8000202
:10711000002803DBD2F8040200281FDA012005F062
:10712000F5FB1521C2F800120F480368002BFCD0B4
:10713000C2F8041201680029FCD0002005F0E6FB2B
:10714000BFF34F8F07487C380168084A01F4E061BB
:1071500011430160BFF34F8F00BFFDE705490448AD
:10716000086000BD88ED00E000E401400400FA057D
:107170000090D00394B4002004220249024802F097
:10718000E9BD000040C10020008000400422024907
:10719000024802F0DFBD00004CC1002000A000400A
:1071A0000148006800470000B4B300202DE9F04713
:1071B00088B00025614E04950595069507953179AF
:1071C0008DF81C10717802292CD101785C485D4A39
:1071D000DFF874A1801AC00803220A3904AF0DF148
:1071E0001C0802EB00444FF001090B2971D2DFE8C3
:1071F00001F0060C121C2A38465462717F0053A01D
:1072000000F05EFA204658A10AE05EA000F058FAAD
:10721000204663A104E069A000F052FA20466DA167
:1072200004F0F0F808B0BDE8F0876FA000F048FA6D
:10723000204673A104F0E6F83179022003F0CAFE7B
:107240000221012061E074A000F03AFA204678A102
:1072500004F0D8F83179032003F0BCFE022108467F
:1072600053E079A000F02CFA20467DA104F0CAF882
:107270003179042003F0AEFE0221032045E07EA018
:1072800000F01EFA204682A104F0BCF831790B20F0
:1072900003F0A0FE0221042037E083A000F010FAE2
:1072A000204687A104F0AEF831790C2003F092FE5D
:1072B0000221052029E088A000F002FA20468CA1D6
:1072C00004F0A0F831790F2003F084FE022106209B
:1072D0001BE02CE08CA000F0F3F9204690A104F014
:1072E00091F83179102003F075FE022107200CE09F
:1072F00091A000F0E5F9204695A104F083F83179DA
:10730000132003F067FE0221082006F003FC039718
:107310008DE82003024602230121072001F0C0FD71
:10732000082204A9DAF8080001F0C6F97AE78EA06D
:1073300000F0C6F9204691A172E70000EAB40020EF
:10734000A4F5020014F5020068AD00200A54454D72
:10735000505F4448543131204E6565642068616E49
:10736000646C657220210A0054454D505F444854B6
:107370003131204E6565642068616E646C657220F1
:10738000210000000A48554D495F444854313120DE
:107390004E6565642068616E646C657220210A0028
:1073A00048554D495F4448543131204E656564204D
:1073B00068616E646C657220210000000A4C4D33D8
:1073C00035204E6565642068616E646C65722021AD
:1073D0000A0000004C4D3335204E6565642068611D
:1073E0006E646C65722021000A4C45445F31204E6A
:1073F0006565642068616E646C657220210A000016
:107400004C45445F31204E6565642068616E646C54
:1074100065722021000000000A4C45445F32204E76
:107420006565642068616E646C657220210A0000E5
:107430004C45445F32204E6565642068616E646C23
:1074400065722021000000000A4C45445F33204E45
:107450006565642068616E646C657220210A0000B5
:107460004C45445F33204E6565642068616E646CF2
:1074700065722021000000000A4C45445F34204E14
:107480006565642068616E646C657220210A000085
:107490004C45445F34204E6565642068616E646CC1
:1074A00065722021000000000A4C45445F35204EE3
:1074B0006565642068616E646C657220210A000055
:1074C0004C45445F35204E6565642068616E646C90
:1074D00065722021000000000A4C45445F36204EB2
:1074E0006565642068616E646C657220210A000025
:1074F0004C45445F36204E6565642068616E646C5F
:1075000065722021000000000A4C45445F37204E80
:107510006565642068616E646C657220210A0000F4
:107520004C45445F37204E6565642068616E646C2D
:1075300065722021000000000A4C45445F38204E4F
:107540006565642068616E646C657220210A0000C4
:107550004C45445F38204E6565642068616E646CFC
:1075600065722021000000000A44617461204572A8
:10757000726F72202121210A0000000044617461B1
:10758000204572726F7220212121000010B5124C2B
:1075900002202061606111A0A06104F17800E06127
:1075A0004FF4007020620020A06260620BA1A16411
:1075B000E06204F51E71E1641021A065C4E91410B5
:1075C000E06509A1E01DFEF7A0FF08A12046FEF737
:1075D0009CFF2020A07110BD10C800205465726D62
:1075E000696E616C000000005254540053454747D7
:1075F000455200000269C1688A4203D88068401A77
:10760000104400E0501A401E7047002809DB00F0CB
:107610001F02012191404009800000F1E020C0F8E4
:10762000801270472DE9F047C46817468946064620
:107630004FF000083069A04201D9051B02E0B16893
:10764000201A0D1AB0686D1E001BA84200D805460E
:10765000BD4200D33D4670682A4620444946FEF7A5
:107660000EFFB0687F1B2C44A844A944A04200D15F
:107670000024F460002FDDD14046BDE8F0872DE9FD
:10768000F04104468846D4E90207C51BE1686068FA
:1076900016460844B54206D94146FEF7F0FEB81931
:1076A000E060BDE8F0812A464146FEF7E8FE761B21
:1076B00008EB050132466068FEF7E1FEE660F0E7A0
:1076C0000FB4054B10B503A9044A029800F03EF828
:1076D00010BC5DF814FB0000939902002CB400204C
:1076E0000FB4084B10B504A902AA039800F02EF8B5
:1076F000044602A9002000F089F9204610BC5DF87C
:1077000014FB00000D7A020002E008C8121F08C135
:10771000002AFAD170477047002001E001C1121F12
:10772000002AFBD1704700000121202803DA8140A4
:107730000548014003E0402802DA2038814009B1C1
:107740000120704700207047FC06FFBD2DE9FF4F68
:107750008DB09B460F460446002606E025280BD038
:107760005A460F999047641C761C20780028F5D162
:1077700011B03046BDE8F08F0025A8460122984997
:1077800000E0054314F8013F203B02FA03F00842F1
:10779000F7D120782E2817D114F8010F45F00405F1
:1077A0002A280ED06FF02F022078A0F1300109298D
:1077B0000AD808EB880102EB410100EB0108641CC8
:1077C000F2E757F8048B641C20786C280DD004DC99
:1077D0004C2812D06A2811D104E074280DD07A28E0
:1077E0000CD10AE045F4001507E0617845F48015F6
:1077F000814202D1641C05F58015641C2278692A37
:1078000045D008DC002AB3D0582A69D0632A10D0AA
:10781000642A08D13BE0702A67D0732A13D0752AF6
:107820005CD0782A5CD010465A460F999047761C57
:10783000D3E017F8040B8DF8000000208DF801004C
:10784000E946012003E057F8049B4FF0FF30690739
:107850004FF0000501D40AE06D1C45450DDA854264
:10786000FADB19F805100029F6D106E06D1C8542F7
:10787000FCDB19F805100029F8D12E4404E019F8B2
:10788000010B5A460F9990476D1EF8D2A5E00A20C9
:107890000021CDE90801C5F3025002280DD001CF27
:1078A000C117031E71F100030DDA4FF0000CD0EB8D
:1078B0000C006CEB01012D2308E0FF1D27F00707EA
:1078C000F7E80201EDE72B0504D52B238DF82830CE
:1078D00001233BE0EB0739D02023F7E70A2000E043
:1078E00010200021CDE9080107E01020002145F01B
:1078F0000405CDE908014FF00808C5F3025002283D
:107900000FD001CF00214FF0000A2B071FD5702A9E
:107910000DD0DDE908C38CF0100C5CEA030C0CD030
:1079200015E0FF1D27F00707F7E80201EBE740220B
:107930008DF828204FF0010A0BE050EA010306D031
:1079400030238DF828308DF8292002239A46582AB2
:1079500004D024A20DF120090B9209E026A2F9E738
:10796000DDE90823FEF73EFD0B9B9B5C09F8013D1A
:1079700050EA0102F4D1ADEB09002030089068070D
:1079800001D44FF001080899884502DDA8EB0100F9
:1079900000E000208046002506E00AA85A46405D27
:1079A0000F9990476D1C761C5545F6DB04E030209E
:1079B0005A460F999047761CB8F10001A8F10108CA
:1079C000F5DC05E019F8010B5A460F999047761C33
:1079D0000899481E08900029F4DC641CC5E60000E4
:1079E0000928010030313233343536373839616295
:1079F0006364656600000000303132333435363759
:107A00003839414243444546000000000A68531C8F
:107A10000B601070704700000EB5404AD0B10128CD
:107A200029D0022838D0032843D004284ED0052876
:107A300059D0062864D007281CD158320DCA8DE8C9
:107A40000D00002003F088F808B100F037F969460E
:107A500007201CE0121D0DCA8DE80D00002003F068
:107A60007BF808B100F02AF9694600200FE000BF5A
:107A700000F024F90EBD10320DCA8DE80D00002073
:107A800003F06AF808B100F019F96946012004F022
:107A9000CBFB0028ECD10EBD1C320DCA8DE80D00C9
:107AA000002003F059F808B100F008F969460220F7
:107AB000EDE728320DCA8DE80D00002003F04CF8E8
:107AC00008B100F0FBF869460320E0E734320DCA44
:107AD0008DE80D00002003F03FF808B100F0EEF84B
:107AE00069460420D3E740320DCA8DE80D0000201E
:107AF00003F032F808B100F0E1F869460520C6E766
:107B00004C320DCA8DE80D00002003F025F808B1B5
:107B100000F0D4F869460620B9E70000A8EA0200A0
:107B200030B50C4C002300BF03EB430504EB850587
:107B3000AD7825B15B1C9BB2322BF5D330BD03EB86
:107B40004303012524F8230004EB83008570C0E97A
:107B5000012130BD00B9002010B501220221002012
:107B600000F0B8FF08B1072810D107220221012038
:107B700000F0B0FF08B1072808D100210A2208460A
:107B800000F0A8FF08B1072800D1002010BD022096
:107B900000F0BEBE70B50024064D06E06868012105
:107BA00010F8340004F016FA641C28788442F5D3E7
:107BB000002070BDC0B30020F8B516460C4605463F
:107BC0000A2A01D20720F8BD04F0FEFA18B904F021
:107BD000C1FA0028F7D1134F102113487D603C7083
:107BE000BE60FEF765FC0020C7E904000F4E0DE003
:107BF00005EBC4003168009181788DF801100078A0
:107C00000B4A694604F036FA0028DCD1641EE4B25F
:107C1000EED2BDE8F84005480021064A001D00F0FC
:107C200087B80000C0B3002078C100200CE8020033
:107C30000D9B0200E993020072B603F09BFC00BFAB
:107C400003F0C4FA0028FBD111481249401AC408B5
:107C5000012000EB044010A103F0D4FB11480068A0
:107C6000C00700D000BE022000EB04400EA103F0CC
:107C7000C9FBBFF34F8F0B48E43801680E4A01F48B
:107C8000E06111430160BFF34F8F00BFFDE70000CB
:107C9000A4F5020014F50200466174616C2065725F
:107CA000726F7200F0ED00E053797374656D2072AD
:107CB00065736574000000000400FA050EB500212C
:107CC0000091CDE901106A4644F20100FFF7B4FFCC
:107CD0000EBD10B58268C368934203D001F046FE22
:107CE000002010BD052010BD29B112B1531E134252
:107CF00003D0092070470E20704701608380002167
:107D00008160C1600846704710B58268C3689A1ADE
:107D100083889A4203D801F033FE002010BD04206E
:107D200010BD0000014801F09EBC0000E0B300203F
:107D30003AB100680129426100D0002101610020B0
:107D4000704707207047000038B5114808235822B3
:107D5000416800910F49006802F018FA002815D117
:107D60000D4A69460D4801F083FC04000ED1012143
:107D70000A4801F0F8FC0123094A1946074801F0B6
:107D80004AFC0649012008390870204638BD000029
:107D900014E8020098C100203DD50200E0B30020A5
:107DA000FFFF7F0070B50446007F0D4608B100203C
:107DB00070BDA26101F090FE401941F10001C4E9DB
:107DC0000201206900B125612146BDE87040002014
:107DD00005F09ABF014600200877012005F094BF06
:107DE00070B50A4E01460A48B578FFF772FF04469F
:107DF0004DB10020B070711C0122C81D02F0E6FEDA
:107E000008B1FFF75BFF204670BD0000FCB3002007
:107E1000F0C10020F0B5244E89B01F460D00044685
:107E200072603FD0A888296882B22048FFF75CFFC3
:107E3000002835D1A889A96882B21C481030FFF704
:107E400053FF00282CD1202219496846FEF717FB62
:107E500060690690207C00B101208DF814008DF837
:107E60001C70607C00B10E208DF81500E068029057
:107E7000A068039020680190606800900A480D4A4D
:107E80006946083002F06EFE002809D1B070206803
:107E9000401C05D004490122491CC81D02F096FE71
:107EA00009B0F0BD0720FBE7FCB30020F0C10020C3
:107EB00028E80200D9E1020010B501461048FFF79A
:107EC00023FF040019D10F480F4A0178515C19B102
:107ED000001D04F00BFD02E00C3004F0E1FB60B982
:107EE000084907480839FFF7F4FE30B9054901226F
:107EF0000839044802F07AFE0446204610BD00000E
:107F000000C2002004B40020A0B3002030B5EFF37D
:107F1000108172B60D4A9468012324B103700029C0
:107F200000D162B630BD93604FF0E023D3F88051AA
:107F3000074C25401560C3F88041D3F88441546054
:107F40005A17C3F8842100220270E8E710C200200B
:107F5000FC06FFBD0B498A68002A11D000280FD10A
:107F6000EFF3108072B60B684FF0E022C2F80031D8
:107F70004B68C2F8043100228A60002800D162B642
:107F80007047000010C200202DE9F0410646086845
:107F90000C46411C4FF0A0474FF0010506D005FAF2
:107FA00000F1C7F80815206802F0A2FF6068411CC4
:107FB00002D0002102F08AFF3168A069C1F82405CF
:107FC000607D227D31681043C1F86C05D4E9001250
:107FD0003068C0F81425C0F80C15207D012815D193
:107FE000A068411C02D0002102F070FFE068411C33
:107FF00005D08540C7F80855E06802F079FFD4E95C
:1080000002123068C0F80825C0F81015BDE8F081EC
:108010002DE9F041064608680C46411C4FF0A04788
:108020004FF0010506D005FA00F1C7F808152068E1
:1080300002F068FF6068411C02D0002102F04FFF8F
:108040003168A069C1F82405607D217D326808434C
:10805000C2F86C05D4E900123068C0F80C15C0F8FD
:108060001425207D012815D1A068411C02D00021D3
:1080700002F035FFE068411C05D08540C7F808557F
:10808000E06802F03FFFD4E902123068C0F808252A
:10809000C0F81015BDE8F081F8B506464FF00000B5
:1080A0001500ADF8000015D009236A46304600F0EF
:1080B00015F80446BDF80000064458B154B12846EE
:1080C000FEF701FAA04205D1224631462846FEF7C6
:1080D0000FFA08B10020F8BD0120F8BD70B5E0B17D
:1080E000DAB1002402E0045D2C44A4B2651C8D4288
:1080F00006D21688A642F6D8061976789E42F2D1A4
:108100008C420AD2A31C005D9BB200B1401E000449
:10811000000C02D01C188C4201D9002070BD1380C5
:1081200070BD2DE9F0418AB006460020ADF814007C
:108130001346102088468DF804000D4606AA01A9B2
:10814000184664DFA6B398BB9DF80400022804D04B
:10815000042807D0102839D10DE003208DF8100035
:10816000022003E005208DF8100004208DF8110096
:10817000002404AF0FE007208DF810000620F5E77B
:108180003B5D05AA41463046FFF7A8FF641CE4B2F8
:108190000546022C04D2BDF814000028F0D003E0FC
:1081A000BDF81400002812D080B2064400240BE071
:1081B0000CE030199DF8042006A9FEF799F948B1A2
:1081C0009DF80400204484B2AC42F2D300200AB0EF
:1081D000BDE8F0810120FAE770B540B10C4D297877
:1081E00039B1044605F0A0F828B1002070BD0E207A
:1081F00070BD082070BDE868062807D205492268CE
:1082000001EB8001401C0A60E860EEE7042070BDCD
:1082100090B3002000C0002010B558B103684BB1E6
:1082200042683AB1044900200124C8600C70C1E9D9
:10823000013210BD0E2010BD90B30020002827D0C1
:10824000002925D0134A1278002A21D00A46018835
:10825000112911D0302907D0322909D0332917D15B
:10826000011D104604F04EBC011D104604F00EBD69
:10827000011D104604F056BB8088B2F8CA1288422D
:1082800006D1002082F8C8024FF6FF70A2F8CA0299
:108290007047000090B3002048B1084A137843B1FA
:1082A000D26832B190F8C8222AB1112070470E204E
:1082B00070470820704701F055B9000090B30020C6
:1082C00038B50288011D04461F2A47D016DC102A43
:1082D0001ED02B482B4BC01AC008032303EB0040D1
:1082E000112A2DD0132A33D01B2A44D1097902290F
:1082F00041D1BDE8384024A103F084B8212A31D00F
:108300003B2A39D0562A36D1A088132176DF11E0D6
:10831000A1880022244800F01FF908B1FFF7CEFC25
:10832000072000F0F9FB08B1FFF7C8FCA1881F483F
:10833000FFF7B2FF00281ED0BDE83840FFF7BEBCF3
:108340000B790A8801B01AA1BDE8304003F065B886
:108350000023A0881A4685217FDFEBE731F8040B64
:1083600075DFE7E700200090A08869468FDF0028CE
:1083700001D0FFF7A3FC38BDA088132176DFD9E731
:10838000A4F5020014F50200436F6E6E6563746914
:108390006F6E20526571756573742074696D6564C4
:1083A000206F75742E0000001CB8002078AD0020EE
:1083B000446973636F6E6E65637465642E20636FCA
:1083C0006E6E5F68616E646C653A20307825782C3B
:1083D00020726561736F6E3A203078257800000056
:1083E00010B51A4C0188606810290ED011292BD1C4
:1083F000401E606028D1FFF7AFFB002824D0216821
:10840000002921D0BDE810400847D0B90021012241
:10841000084600F05FFB08B107280FD107220221B0
:10842000012000F057FB08B1072807D104220221E0
:10843000002000F04FFB20B1072802D0216801B1D5
:1084400088476068401C606010BD000088B3002051
:1084500070B506461F48204A0C46801AC0080978A5
:10846000032202EB004579B101292CD0022930D139
:108470006288284619A102F0C9FF608804F070FFE5
:10848000BDE8704005F0C2B9628828461BA102F021
:10849000BDFF618804F10E02304600F05DF808B1BE
:1084A000FFF70CFC304600F063F908B1FFF706FC5B
:1084B00028461CA102F0A6FF608822463146BDE88E
:1084C0007040FFF72DBBA189A06800F087F9214813
:1084D000866070BDA4F5020014F502004469736360
:1084E0006F6E6E65637465642E20576974682068CA
:1084F000616E646C65723A202564000044697363A0
:108500006F7665727920636F6D706C6574652E206F
:10851000576974682068616E646C65723A202564DE
:1085200000000000436F6E6E656374656420746FB5
:10853000206465766963652077697468204E6F7280
:1085400064696320554152542053657276696365AE
:108550002E00000068AD002050B141802AB1538840
:10856000C3801388838092880281406901F0A4BF90
:108570000E20704730B5144B0D4604000FCB85B06C
:108580008DE80F001ED0EDB1A868D8B1214668462D
:1085900062DF002814D120788DF812000120ADF898
:1085A00010004FF6FF7060802868E0606868206106
:1085B0000020A0802081A868606104A8FFF70CFE5D
:1085C00005B030BD0E20FBE7F0E7020030B50246F3
:1085D00085B008002DD0002A2BD041884FF6FF74BB
:1085E000A14226D09388994223D11588112D14D009
:1085F000392D1ED1818800291BD053898B4218D177
:10860000C168002915D001218DF8001002F1100178
:108610000291D189ADF80C1008E08B4209D1C168F4
:10862000002906D002218DF800104480C2686946F6
:10863000904705B030BD30B585B00C4605461421D5
:108640006846FDF735FF207804F10E01002830D18F
:10865000A08801282DD1A0792A78904229D1002222
:1086600017E002EBC20031F81030022B02D0032BCE
:108670000ED105E001EB40000089ADF8120007E0E3
:1086800001EB40000389ADF80E304089ADF81000D1
:10869000521C207A9042E4D8E868002809D060880B
:1086A000ADF8020000208DF80000EA68694628460F
:1086B000904705B030BD000070B588B015460E4635
:1086C000040012D020216846FDF7F2FE19481A492D
:1086D000401AC008022101EB0040F42D07D917A170
:1086E00002F090FE072008B070BD0E20FBE7628804
:1086F000A2F57F43FF3B18D0154ACDE902240120A3
:108700008DF800002289ADF812208DF81010ADF818
:1087100016500022ADF8142006968DF811006288DC
:108720006946606901F000FFDDE70AA102F06AFE18
:108730000820D8E734F5020014F50200436F6E7488
:10874000656E7420746F6F206C6F6E672E00000072
:10875000A1990200436F6E6E656374696F6E206845
:10876000616E646C6520696E76616C69642E0000D0
:1087700010B58AB058B34188A1F57F42FF3A28D09E
:10878000C18831B3044620216846FDF791FE0121DE
:108790008DF8201000208DF821000F4ACDE9022429
:1087A0008DF80010E288ADF812200222ADF81620F4
:1087B000ADF814008DF8101008A88DF8111006906F
:1087C00062886946606901F0AFFE0AB010BD0E20F4
:1087D000FBE70820F9E70000A19902002DE9F0412C
:1087E0000F46064618481949401A4FEAD008032197
:1087F00001EB084016A102F005FE002415E0305DF3
:10880000FFF75AFB0546315D164804F083FE5DB163
:10881000112DF4D0012101EB0840224612A102F0F3
:10882000F5FD2846FFF74AFA641CBC42E7D3F0196D
:1088300010F8010C0D2804D10A20FFF73DFB112888
:10884000FAD0BDE8F0810000A4F5020014F50200A2
:10885000526563656976696E6720646174612E2173
:108860000000000010B800206170705F75617274C4
:108870005F707574206661696C656420666F722034
:10888000696E646578203078253034782E000000D9
:108890000149085C7047000014E702000649095CC2
:1088A0004FF0A040D0F81005C84010F0010000D0F3
:1088B000012080F00100704714E702002DE9FC411F
:1088C0000646C0074FF000050ED0104F00240122CD
:1088D000385D009500231146019502F09DFA641C55
:1088E000042CF4D300F044F8B0070DD5074E002453
:1088F000361D0022305D032300951146019502F0DC
:108900008BFA641C042CF4D3BDE8FC8110E7020050
:1089100007490B5C4FF0A041D1F804250120984095
:1089200020EA0203C1F808351040C1F80C05704771
:1089300010E702000249085C002102F056BB00006B
:1089400010E702000249085C012102F04EBB000062
:1089500010E702000549095C4FF0A040D0F804057B
:10896000C84010F0010000D00120704710E702005D
:1089700010B500242046FFF7DDFF641C042CF9D35A
:1089800010BD10B500242046FFF7DCFF641C042C4A
:10899000F9D310BD10B50246064B4FF0FF30002151
:1089A0005C5C944201D1084610BD491C0429F7D3F0
:1089B00010BD000014E7020070B50C4E0C004FF023
:1089C000000530600BD0012000F06AF808B10220E9
:1089D00004E0002000F064F800B10B202070706803
:1089E00010B9FFF7B9F80546284670BD88B30020D6
:1089F00010B5002000F0CAF908B1062806D1012000
:108A000000F0C4F908B1062800D1002010BD000014
:108A10002DE9F0470D468146FFF7BCFF04460428C8
:108A200036D2DFF874801B481C4EA8F10C0725B322
:108A3000012D0ED0022D2BD104EB4400304445789B
:108A4000002D25D0B968002922D02846BDE8F0477E
:108A5000084704EB4401755C0E44717849B10E4A35
:108A60004FF48041093A8068FFF79CF908B987F80C
:108A70000390B17808F80410E2E78068FFF7AAF9DC
:108A800004EB4401314418F804008D78A842D7D093
:108A9000BDE8F08718E7020084B30020D0BF0020B3
:108AA000042801D2FFF7FABE00207047042804D042
:108AB0000A280CD1002002F071BE0548132140881D
:108AC00076DF082803D0002801D0FFF7F7B87047F9
:108AD0001CB8002070B50023042810D20D4D00EB07
:108AE0004004012A02D101290CD00022094E00EBDA
:108AF0004000304461B1012906D0022906D0072385
:108B0000184670BD0E30C2B22A55F9E74270F7E739
:108B10008270F5E7D0BF0020044A01460020127998
:108B2000D20702D0084600F04DB8704778B3002055
:108B300070B506461E480024C0E90161B00720D583
:108B40000025012211462846FFF7C4FF6D1C04468C
:108B5000042D02D2002CF4D013E094B940F2333249
:108B600004211448FFF728F804000AD1FFF712F88F
:108B7000040006D10F48104A0021001FFFF7D8F863
:108B80000446F00712D00120FFF798FE74B9094897
:108B90000A4A00210C38FFF7CBF8040006D105483B
:108BA000074A01210838FFF7C3F80446204670BD84
:108BB00078B3002024E70200998E0200459E02004F
:108BC0008F7B02002DE9F05F6E4C05460026607831
:108BD000B34618B184F801B001F01CF96A4F4FF4A4
:108BE0007A694FF4C87A4FF00108182D69D2DFE88E
:108BF00005F00C1313384754696E727B727BC58481
:108C000084848484B3B6B9BCC5C501F003F938685F
:108C1000FFF7E0F806465CE00020FFF79BFE002827
:108C20004FF0000008D0FFF785FE022D02D14FF46F
:108C3000E16008E0484606E0FFF784FE022D01D11E
:108C4000C82000E05046410CC0034FF47A728018EF
:108C500041F10001257052000023FDF7C3FB0146DE
:108C60002AE00020FFF776FE00284FF0000004D035
:108C7000FFF760FE4FF44870E5E7FFF763FEDFE7BC
:108C80000020FFF767FE00284FF0000002D0FFF73A
:108C900051FECFE7FFF756FED4E70020FFF75AFE5C
:108CA00000284FF0000002D0FFF744FE01E0FFF77C
:108CB00049FE257040F6CD4100223868FFF772F872
:108CC000064646E00020FFF723FE257008E000205E
:108CD00051E025703DE084F801800120FFF718FE87
:108CE000002240F26661E8E784F801800120FFF786
:108CF0000FFE00224FF40051DFE77868FFF76AF8B3
:108D00000646D5F1110000D02EB10220FFF712FE69
:108D100084F802B01DE0012816D980B2C82148436A
:108D2000C117C90341EA5041C0034FF47A72801859
:108D300041F1000152000023FDF754FB01460022DF
:108D40007868FFF72FF806460220FFF7FBFD84F84E
:108D500002803046BDE8F09F01F05CF8B9E701F011
:108D600059F8B4E701F056F804E001F053F8002098
:108D7000FFF7E8FD0120FFF7E5FDAAE7FFF701FE99
:108D8000A7E7000078B3002018E70200012105F0F2
:108D90002FBC00002DE9F84F0546861C00208DF8F9
:108DA000000091460F464FF0010A6846FFF7AEF803
:108DB0001B4C04F21C4860683860D4E90101194F6B
:108DC000401A3968081A0EE00121404601F023FAE2
:108DD00001F04EF80146404601F01DFAD4E90101C8
:108DE000401A3968081A401C8642EDD8B9F1000FC4
:108DF00003D0052065F3891002E0062065F39F503B
:108E000061683A68114004EB8101C86060683044D1
:108E100060609DF80000FFF79DF85046BDE8F88FB0
:108E2000F0C300203CB4002070B50D4604460A296A
:108E300002D10D21FFF7F8FFA0682268411CA16054
:108E40001554D4E90101814204D32046BDE87040A5
:108E500001F0E9BE70BD00000448816840688142AD
:108E600001D101207047002070470000F0C30020AE
:108E7000034630B5074800210478426806E000BF89
:108E800002EBC10005789D4203D0491CA142F7DBEB
:108E9000002030BDC0B3002000780221FFF7B8BD2C
:108EA0002DE9FC5F83EA0205DDE90C76DDE90EC4FD
:108EB00085EA070A4FF001098AF0FE054FF0B10874
:108EC000072810D04FF0070AF0B3012851D002282C
:108ED00077D003287DD0042871D0052870D00628CB
:108EE0001ED1002090E04FF0060B012905D000298B
:108EF00016D18AF0FD01002017E0002002E0315C6D
:108F00004D40401C6045FAD384F8008084F801B0DD
:108F1000A370E27084F8049030786071A771E571F5
:108F2000BDE8FC9F355C6940401C6045FAD384F87D
:108F3000008084F801B0A370E270022020713078C4
:108F40006071A771E171EBE702E0315C4D40401CBC
:108F50006045FAD384F8008084F801A0A370E27021
:108F600084F80490307860717078A071E771257290
:108F7000D6E7002002E0315C4D40401C6045FAD34A
:108F800084F8008084F801A0A370E27084F8049053
:108F9000327862717078A071E77125727178CDE9CD
:108FA00000011B481B493378401AC008032101EB1C
:108FB000004019A102F042FAB2E702E009E010E035
:108FC00017E0002002E0315C4D40401C6045FAD3C0
:108FD000C0E7002002E0315C4D40401C6045FAD300
:108FE000B8E7002002E0315C4D40401C6045FAD3F8
:108FF000B0E7002002E0315C4D40401C6045FAD3F0
:10900000A8E7315C4D40401C6045FAD3A2E7000060
:10901000A4F5020014F502000A446174612042487C
:10902000313735302048616E646C65723A2025789E
:10903000202020257820257820202025780A00006F
:1090400005494FF0FF32082841F8202002D3084498
:1090500080F84820704700002CC00020F0B54FF089
:10906000FF3512B10023082601E008230C260C4C22
:1090700005E000BF54F823707F1C04D05B1CB34292
:10908000F8D32846F0BD26185DB286F8305044F873
:109090002310002AF5D1E11881F84800F1E700001B
:1090A0002CC000200249084490F9300070470000AD
:1090B0002CC0002030B589B00D46044620216846FA
:1090C000FDF7F6F994F8C602002300EB8001C1EB2E
:1090D000801094F8C51204EB400041B1491EC9B29A
:1090E00001EBC10100EB4101498A491C00E0C18844
:1090F000008961F30F0360F31F4303208DF8000024
:109100000548CDE90204054804932A46694680686B
:1091100001F00AFA09B030BD1595020090B30020A5
:109120001CB50024182023460094224621460194B1
:1091300001F0BAFE03E00120641C02F043FF182096
:1091400001F040FF10B1642CF5D30DE0642C0BD27C
:10915000002403E00120641C02F034FF182001F019
:1091600031FF18B1642C04D301201CBD642CF1D351
:10917000FAE700201CBD000070B5084C050009D0BE
:1091800010342168002907D0086820604968284603
:109190008847F6E70834F4E770BD000018C00020E7
:1091A000054A012120B1012805D19170FFF7E4BFE4
:1091B00051700020FAE7704718C0002010B5D0E9C0
:1091C0000234D1E90220D11AA04101D3012010BDFF
:1091D000002010BD10B502460020138806E0546838
:1091E00034F810408C4203D0401C80B28342F6D841
:1091F00010BD000070B588B0002415460E460094DE
:1092000001940246029403940494059414A16846C0
:109210000694FEF765FA9DF800008DF80C009DF8A5
:1092200001008DF80D009DF802008DF810009DF8EA
:1092300003008DF811008DF80E408DF8124005AA3C
:1092400007A103A8FDF76AF906AA05A104A8FDF77E
:1092500065F9059830700698287008B070BD000058
:109260002578000070B588B006460020059006906D
:10927000ADF81410ADF816100190029001AA05A9DE
:10928000304690DF050021D002F0E8FD034611488A
:1092900011493246401AC108012000EB0140044642
:1092A0000E4902F0BAF8BDF8042012B9BDF8060064
:1092B00028B1BDF80630204609A102F0AEF8BDF88D
:1092C00008201AB12046164902F0A0F808B0284636
:1092D00070BD00001CF5020014F50200E8EC02006D
:1092E000546865207265717565737465642054589F
:1092F0002F5258207061636B6574206C656E6774C3
:109300006820697320746F6F206C6F6E67206279BC
:109310002025752F2575206F63746574732E0000EA
:1093200034ED020001460148FFF785B91CB8002062
:109330002DE9F04389B00F46054691462021684645
:10934000FDF7B6F895F8C60295F8C54200EB800126
:10935000C1EB801005EB400604EBC40006EB4001B6
:109360003279601C0A31904232D108AB0022284683
:1093700000F013FD78B310E0401EA04201D10020A0
:1093800004E004EBC40006EB40001C3080460246BB
:1093900008AB284600F001FD90B100203870042091
:1093A0008DF8000008984A46CDE903500C48029019
:1093B0000C486946806801F0B7F809B0BDE8F08351
:1093C00095F8C5024146401C641C85F8C502E4B20C
:1093D0003079A042D0D8012038700020EDE700009D
:1093E0001595020090B3002070B500240F4D10E0D9
:1093F000686800EBC406307802F0A2FE717801299B
:1094000001D0012100E000214140307800F034FA21
:10941000641C28788442EBDBD5E90401084303D0BF
:10942000BDE8704004F08ABD70BD0000C0B30020EC
:1094300030B59FB00C4605467C216846FDF738F8EC
:10944000ADF8024003208DF8000004480195416802
:10945000002901D0684688471FB030BD90B3002076
:109460002DE9F041044690F8C602884600EB8001E1
:10947000C1EB801004EB40061746304603F054FF62
:10948000050042D0D4F8CC0206283ED204EBC0102E
:109490007622A0F8D272D4F8CC02314604EBC01088
:1094A00000F53570FCF7EBFF0026B8F1000F06D091
:1094B000D4F8CC0204EBC01080F8D06206E0D4F8F7
:1094C000CC12022004EBC11181F8D002D4F8CC02F6
:1094D00004EBC010C0F84C53D4F8CC020C4D401C27
:1094E000C4F8CC02E96888420FD12746002407E07F
:1094F00007EBC41101F53470D1F84C138847641C94
:10950000E8688442F4D3C7F8CC62BDE8F08100007B
:1095100090B30020F0B515469FB0002281F8C82214
:10952000074691F8C6020C4600EB8002C2EB8010A1
:1095300001EB400003F0F8FE060009D07C22084948
:109540006846FCF79CFFADF8025068460197B047AB
:109550001FB029462046BDE8F040FFF769BF000074
:1095600044E70200F0B50D4689B004464FF4BA61F5
:10957000FCF79EFF20216846FCF79AFF154E29460E
:10958000B06800F099FF002821D1A4F8CA52C4F8AD
:10959000CC0284F8C70284F8C60284F8C5020E48DB
:1095A00001272A460068206002208DF80000ADF8EF
:1095B00010702068CDF812000848CDE90204694611
:1095C000B06800F0B1FF002801D184F8C87209B07A
:1095D000F0BD000090B3002000C0002015950200EF
:1095E00010B50021024800F021FE80F3100010BDEC
:1095F0000CC800204FF480328A400168C1F848232B
:109600000068C0F8082370474FF4A07202EB810194
:1096100089B200F0A1B92DE9F04105460E464FF49C
:10962000A07000EB860081B228684FF48034B4400B
:10963000984622F07F47C0F808432868C0F848439E
:10964000286802F096F9286800EB8600C0F840759B
:109650002868C0F84443B8F1000F02D02868C0F869
:109660000443BDE8F0810068D0F8040570470000AD
:1096700070B54379234C44F823204279231D03EB32
:10968000C202224C1579204A121BD4082DB108259C
:10969000022000EB04401EA130E005680A88C5F8EE
:1096A000082590F904208978002A4FEA411104DB4B
:1096B00002F1E02282F8001405E002F00F0202F14C
:1096C000E02282F8141D90F904100122002909DB20
:1096D00001F01F0502FA05F54909890001F1E021B1
:1096E000C1F800514179002503EBC1010A714179AC
:1096F00043F83100032000EB04400EA101F082FE8C
:10970000284670BD18B4002084F5020014F502004C
:1097100052544320696E7374616E636520616C728C
:109720006561647920696E697469616C697A6564E0
:109730002E0000005254433A20696E697469616CCE
:10974000697A65642E00000090F90400002809DBA6
:1097500000F01F02012191404009800000F1E0204B
:10976000C0F8001270470A46022100F07BB84FF49F
:10977000827100F0F1B80068012101607047006853
:109780000121416070472DE9F05F07460C464FF418
:10979000A07000EB84001FFA80FA38684FF480361E
:1097A000A6409B4622F07F45C0F848633868C0F861
:1097B00008633868D0F8048500EB8402D2F840953D
:1097C000C2F840855146386802F0D3F8A9EB08008A
:1097D00020F07F40012806D1102002F0E3FB514623
:1097E000386802F0C6F83868D0F80485C0F84463D9
:1097F000A5EB080121F07F413868012900EB8400C6
:1098000010D0C0F840553868D0F804156FF07F4C80
:109810006A1A521E22F07F42ACEB0B03934217D31D
:1098200062B118E06D1CC0F84055102002F0BAFB80
:109830003868D0F8040540450AD10CE000EB8400FC
:109840006D1CC0F840553868D0F80405884202D035
:109850000D20BDE8F09F01223146384600F002F8A5
:109860000020F6E70368C3F84413002A02D000681A
:10987000C0F80413704700002DE9F84F0E46344934
:10988000804601EB5001C007097801D00F0901E0C3
:1098900001F00F074FF00009424601204946FCF74E
:1098A000D2FDDFF8B0A004460D46052F4ED2DFE80A
:1098B00007F003161B282C00002E47D0012140463C
:1098C00004F0C6F88DF800906846FEF71FFB50467E
:1098D000D0E904120C431543CAE9044532E00EB145
:1098E000022114E0002112E04EB10321404604F0B1
:1098F000AFF84046BDE8F84F012104F069BE0121F0
:1099000005E0002E22D1042101E02EB103214046C2
:10991000BDE8F84F04F09CB80021404604F098F8E8
:109920000021404604F054FE8DF800906846FEF792
:10993000EDFA5046E243D0E904341A4024EA050126
:10994000CAE904219DF80000FEF704FBBDE8F88F8A
:1099500078C10020C0B3002010B5006842581AB189
:1099600002F007F8012010BD002010BD8268838836
:109970001A4003689A5C0A708168491C81607047CC
:10998000C26883881A4003689954C168491CC16041
:10999000704710B50446C0B2FEF78EFA204610BDDF
:1099A0000969002900D008477047000070B5088891
:1099B0000D46A0F52061773916D10C480C49401AA4
:1099C000C108032000EB01440AA1204601F01AFD62
:1099D000A88810A1C01E82B20D481346828020467E
:1099E000BDE8704001F019BD70BD0000A4F5020093
:1099F00014F50200415454204D5455206578636895
:109A0000616E676520636F6D706C657465642E00B0
:109A100068AD0020426C65204E5553206D61782062
:109A200064617461206C656E67746820736574206E
:109A3000746F2030782558282564290010B509490D
:109A4000094800F06AFC08B1FEF738F9F72106482A
:109A500000F057FC002803D0BDE81040FEF72EB9F7
:109A600010BD0000AD99020034B8002070B50D465D
:109A700001F11004C98A102901D9092070BD01F033
:109A8000E8FD686030B1E2880023A16801F047FE7C
:109A9000002070BD042070BD70B50D4601F11004AA
:109AA00089690988102901D9092070BD891C01F034
:109AB000D0FD686068B100230222A16801F02FFE8A
:109AC000A068E16802230288686801F028FE00208F
:109AD00070BD042070BD000010B50B48FFF7C3FD3A
:109AE000094A083AD2E90434C018D2E9063244F1EE
:109AF0000001C31A71EB020204D24FF08072801889
:109B000041F1000110BD0000E0B3002010B5C0B26B
:109B1000FFF7AEF90446007802F012FB01466078C8
:109B2000012801D0012000E0002090EA010F08D0B8
:109B30000449D1E90401084303D1BDE8104004F011
:109B4000FDB910BDC0B3002010B50121022001F005
:109B50000BFA0121032001F007FA0121042001F092
:109B600003FA01210B2001F0FFF901210C2001F083
:109B7000FBF901210F2001F0F7F90121102001F07C
:109B8000F3F90121132001F0EFF90021022001F087
:109B900021FA0021032001F01DFA0021042001F028
:109BA00019FA00210B2001F015FA00210C2001F018
:109BB00011FA00210F2001F00DFA0021102001F010
:109BC00009FA0021BDE81040132001F003BA00009B
:109BD00001490620FDF720BFEFD6020010B5FFF7C0
:109BE000B3FFFFF7F5FFBDE81040FDF774B80000C4
:109BF0002DE9FC5F0E008346DDE90C47C6F100004D
:109C000098469246814600D40846012503E000BFED
:109C100090FBFAF06D1C5045FADAA84500D945468C
:109C200024B1002E01DB780700D5641EB80702D5E9
:109C3000B8F1000F0AD0F80708D13CB1A54205D20F
:109C400020215846641EFFF7EFF8F6E7002E02DAEF
:109C50004E462D2102E0780703D52B215846FFF709
:109C6000E3F807F0030002280BD1B8F1000F08D188
:109C70003CB1A54205D230215846641EFFF7D4F806
:109C8000F6E7CDE90047434652463146584604F0D0
:109C900045FCBDE8FC9F000070B50D460446006819
:109CA0004FF4887102F00BF94FF49071206802F0C4
:109CB00006F94FF49271206802F001F94FF4A27195
:109CC000206802F0FCF84FF4AC71206802F0F7F85D
:109CD00020681249C0F804132068690740F3073070
:109CE000090E002804DB00F1E02080F8001405E0F4
:109CF00000F00F0000F1E02080F8141D206840F310
:109D00000730002809DB00F01F02012191404009C3
:109D1000800000F1E020C0F8001170BD1003420087
:109D2000024600201268530713D502F003000128F1
:109D300002D002280CD105E0C2F383100B68801C0E
:109D4000184404E00223086803EB925210440860B0
:109D5000012070472DE9F041174688460646002449
:109D600017E000BF4FF4A07000EB84054FF4803083
:109D70007159A04059B1D6F80413014207D02946C1
:109D8000304602F075F8D8E9002128469047641C57
:109D9000E4B2BC42E6D3BDE8F08110B509892AB12E
:109DA000D088491C814218D1002010BD90F8C622ED
:109DB00002EB8204C4EB821200EB42021289914250
:109DC000F2D0491C198090F8C61201EB8102C2EB57
:109DD000811100EB4100008902E01980D088401E0B
:109DE0005880012010BD90F83600C0F3C100012852
:109DF00003D0032801D0002070470120704702687B
:109E0000134602E08A4204D01268002AFAD10B609D
:109E1000016070470A4810B5807860B1002401E005
:109E2000022C06D02046FEF785FD641C042CF7D3D7
:109E300010BD0324F6E7BDE81040FEF799BD000011
:109E400078B3002003480179C90702D00078FEF7F3
:109E5000B9BE704778B30020F721018017214180F7
:109E6000002101714171FB2181711B21C17170477A
:109E70002DE9FF410026244800F0CAF92248001FBE
:109E8000074600F0C5F9214C2149A06800900D68F3
:109E900000E000986946284004EB80000C30FFF792
:109EA0003FFF0028F5D101AA009901EA050304EB60
:109EB0008303491CDB6842F82030401C00910228D3
:109EC000F2D3019800F0030001280BD0022810D132
:109ED0000198032101EB90500099BDF80A6001EB55
:109EE000900005E00198BDF80A60C0F383100844B3
:109EF0000090384600F089F908B10098A06004B0DD
:109F00003046BDE8F081000008C80020F0C3002002
:109F10003CB4002051498AB0322201F5567003F05A
:109F2000DFFAFFF75BFE03F0BBFA00F0B1FD08B10A
:109F3000FDF7C4FE002000F0E5FD4FF48041002055
:109F400001F0ECFA08B1FDF7B9FE01F031F9FDF7C7
:109F5000FBFE08B1FDF7B2FE414A01214148FDF781
:109F6000E7FE08B1FDF7AAFE3E491822083168460F
:109F7000FCF785FA3C4806903C494FF48070CDE9E7
:109F80000701099007233A4A06A96846FDF742FFF0
:109F900008B1FDF793FE37490120FEF7C9FD08B16E
:109FA000FDF78CFE69460020FEF706FD08B1FDF7BF
:109FB00085FE324C3048CDE9000400256846FEF7A6
:109FC0002BF908B1FDF77AFE01F0B2FB08B1FDF7FD
:109FD00075FE01F065FE08B1FDF770FE69460120CF
:109FE000009501F0FBFC08B1FDF768FE684601F042
:109FF0008FFD08B1FDF762FEFFF720FD20480090BD
:10A000002048CDE9010469461F48FEF7B3FA08B1BC
:10A01000FDF754FE03F0BCFB1CA0FDF751FB2448E8
:10A020002449401AC008032101EB004022A101F09D
:10A03000E9F903F0EBFB0B48002240F2666100688F
:10A04000FDF7B0FE08B1FDF739FE02F0BFFF01F0E9
:10A05000BDF80028F9D101F07FFBF6E7B8B4002085
:10A0600041DD02008CE6020010B6002010B700208F
:10A070003DE10200AD8A02002593020048B30020B2
:10A080005184020009C902001CB80020424C45203E
:10A09000554152542063656E7472616C206578611D
:10A0A0006D706C6520737461727465642E0D0A00A6
:10A0B000A4F5020014F50200424C452055415254CB
:10A0C0002063656E7472616C206578616D706C657B
:10A0D00020737461727465642E0000002DE9F047EE
:10A0E000C5881E1DB6FBF5F78946B6FBF5F104469B
:10A0F00005FB176C407916686843DDF820A0F71857
:10A10000001F874200D9C61A166001E02468491E64
:10A110000029FBD1A5EB0C078846B74216D818E0FA
:10A1200004EB0C00001D09EB0803BAF1000F3A46DE
:10A1300002D00146184600E01946FCF7A0F9246851
:10A14000F61B4FF0000CB844B54201D9374600E089
:10A150002F46002EE4D1BDE8F087000030B502465E
:10A1600051B101F0EFF90021074C08E034F821303B
:10A170001568AB4202D11160002030BD491C8142FC
:10A18000F4D3052030BD00000000000010B531B14F
:10A19000B2FBF3F403FB14241CB1092010BD0E2004
:10A1A00010BD01600021416081608281C381084649
:10A1B00010BD70B50C460546FCF72CF8002802D0FF
:10A1C00021882868084470BD10B50A8849888A42E9
:10A1D00003D1FCF761F8012010BD002010BD70B55F
:10A1E0000C460546FCF73BF8002802D06188286839
:10A1F000084470BD10B50A8849888A4203D1FCF72B
:10A2000025F8012010BD002010BD002100F009B884
:10A21000012100F010B808B56A46FCF792F80098E2
:10A2200008BD08B56A46FCF772F808BD08B56A466D
:10A23000FCF754F808BD08B56A46FCF75BF80098CF
:10A2400008BD08B56A46FCF789F8009808BD38B51E
:10A25000044600258DF800506846FDF757FE21683A
:10A260006268086890420ED9401E08600178238A0F
:10A27000E26801FB0325227A2168101AC0B20A792C
:10A28000824200D208719DF80000FDF763FE284667
:10A2900038BD38B5054600208DF800000C466846EC
:10A2A000FDF734FEE868298A201AB0FBF1F12A682C
:10A2B0001068431C136001709DF80000FDF74AFE12
:10A2C00038BD10B530B1017A42680368891AC9B245
:10A2D0001A6006E00E2010BD03681A68541C1C604A
:10A2E0001170491EC9B2F7D20068002101710846F9
:10A2F00010BDC20800F007030120895C98400840A7
:10A30000704728B1A1F11702E12A03D30720704753
:10A310000E20704741800020704770B5040010D0B7
:10A32000F720A16520806080FB202071002504EBD0
:10A33000C500801DFFF790FD6D1C0A2DF7D300208E
:10A3400070BD0E2070BD00002DE9F04185888EB0F3
:10A350000C460A2D7ED20188474E4FF00008242972
:10A3600040D006DC102909D011290CD023295FD157
:10A3700054E03A290DD055295AD12EE00146204605
:10A3800002F06CFB54E004EBC500801DFFF764FD98
:10A390004EE0294604EBC107408937F8062F824278
:10A3A00000D810467880172800D217207880A06D3A
:10A3B00070B1787960B1D6E90002CDE90002ADF85C
:10A3C00002107888ADF80400A26D204669469047D7
:10A3D00087F8058087F804802AE00146204602F0CD
:10A3E000FFFB25E0011D2C226846FCF748F8BDF86C
:10A3F0000000BDF8042004EBC0014A73A26DBAB19D
:10A40000D6E90423CDE90B23ADF82E00487B8DF867
:10A410003000A26D20460BA9904709E004EBC5036C
:10A42000017A187B884200D201462846FEF71AFFBF
:10A4300004EBC504A07A00281AD0E1882846A5DFDD
:10A44000012590B1112813D001F008FD02460B48F8
:10A450000B4900E00CE0401AC0080EB005EB0040CC
:10A46000BDE8F04107A100F0D1BF84F80A80E57291
:10A470000EB0BDE8F0810000C0E702001CF502004C
:10A4800014F5020073645F626C655F6761747463E6
:10A490005F65786368616E67655F6D74755F72652F
:10A4A000717565737428292072657475726E6564A0
:10A4B0002025732E000000002DE9F0410F46040016
:10A4C0004FF000050DD002F07DFE39462046FEF724
:10A4D00081FE218881421ED1002005464FF6FF767D
:10A4E00009E00E20BDE8F081626832F81020B24227
:10A4F00006D1401C80B28142F6D8206901F0F6F8FE
:10A50000002021880BE0626832F81020B24204D1AA
:10A51000616821F810702846E4E7401C80B281424F
:10A52000F1D80420DEE700002DE9F04791460D4602
:10A5300004004FF0000742D0EDB302F043FE49465D
:10A540002046FEF747FE2978062902D2218881425B
:10A5500002D10720BDE8F087A16800EB800601EB7F
:10A56000860001F080F930B14946284602F03EFFEE
:10A5700008B13846EEE72978DFF8488058F82120FE
:10A580002AB12069B8B1294690470028E2D1A068D5
:10A59000294600EB860001F085F9070006D02978EE
:10A5A00058F8210010B1686801F083F8A0684946A6
:10A5B00000EB860000E002E002F06CFDD9E70E201F
:10A5C000C8E70000D8E70200F8B505000C4620D027
:10A5D000002C1ED02888112806D0A0F130011F2998
:10A5E00002D950381F2814D8AE8820463146FEF7CD
:10A5F000F1FDADF80000218881420AD02988112997
:10A6000008D0A16800EB800001EB8000314602F029
:10A6100041FDF8BD62684FF6FF7122F810106946DF
:10A62000E06801F03FF9F8BD2DE9F041044600F182
:10A63000360700F12C0590F8346090F82A0086B0B7
:10A6400001F10208002814D08BDF14216846FBF7C3
:10A650002FFF33462A46394640468CDF05218DF8C8
:10A6600000100190002804D0616C002901D06846D8
:10A67000884706B0BDE8F0814FF4C87141860621D5
:10A6800081851821C18500210186704710F8361F89
:10A69000A02242805022828021F018010022C28034
:10A6A00041F0040101700121417070472DE9F04132
:10A6B00040B13AB10025042631B103292ED007203C
:10A6C000BDE8F0810E20FBE7074600F1200490462C
:10A6D0001046FBF7F8FE10F0FF0001D0202801D94A
:10A6E0000C20EDE72078F0B95FF0000607EB46108C
:10A6F0004146FBF7EFFEF8B1761C16F0FF06F5D0E9
:10A700004046FBF7E0FE02462078414607EB401347
:10A71000401C20701846FBF7B2FE0DE000F1220449
:10A7200010F8263F0BB13046CAE7B2F800600021AE
:10A7300034F82170B74201D12846C1E7491C11F015
:10A74000FF01F5D004EB83015B1C03701068086007
:10A75000F2E730B121220021115480F82710084679
:10A7600070470E20704730B515460B46040002D0E6
:10A77000980702D009E00E2030BD580705D4D8064E
:10A7800003D4180701D4072030BD2046FFF7E1FFAE
:10A79000D9074FF0010001D084F82100590701D5F5
:10A7A00084F8270084F82850002030BD70B50D468D
:10A7B000040012D02A216264FBF77AFEEDB12879F9
:10A7C00084F82A00287B84F83400296839B10E22E5
:10A7D00004F13600FBF753FE04E00E2070BD204666
:10A7E000FFF754FFA86820B10168E1624068206368
:10A7F0000CE02046FFF740FF08E02046FFF746FF49
:10A800002046FFF739FF002084F82A0004F14800B1
:10A81000A0661F20A4F86C00002070BD2DE9F04F49
:10A8200093B00E4604464FF000084546142106A892
:10A83000FBF73EFE04F136000A902046FFF7D3FAFC
:10A84000010004F16800109010D002208DF818006B
:10A850000796616C06A88847002010998ADF314668
:10A860002046FFF7E1FE13B0BDE8F08F94F8280012
:10A87000049094F8210094F827B04FF0000AE0B15A
:10A8800094F82090B08B4FF0010800270C9012E054
:10A8900004EB4712B0690C99FDF7FEFB48B19DF837
:10A8A00020004FF0010A40F001008DF820006D1CDF
:10A8B00003E07F1CFFB24F45EAD3BBF1000F36D057
:10A8C00004F122000F9094F82800119094F826B01B
:10A8D0004FF00009B08B08F101084F460E9012E0CE
:10A8E0000F980E9900EB8702B069FDF71AFC30B1A2
:10A8F00009F1010000F0FF09119858B101E0119829
:10A9000028B97F1CFFB25F45EAD3119810B1D94531
:10A9100003D00CE0B9F1000F09D09DF820006D1CA8
:10A9200040F00400EDB28DF820004FF0010A0498C9
:10A93000079608B1454503D004993AEA010007D0CB
:10A9400000208DF8180031462046FFF76DFE02E02A
:10A9500003208DF81800616C09B106A88847002013
:10A9600010998ADF7FE770B50D46014601F10802B4
:10A970000C1D28460988363586B010291ED01B29A3
:10A9800007D01D292DD106B01146BDE87040FFF754
:10A9900045BF064614216846241DFBF789FD207833
:10A9A00001281ED1706C00281BD004208DF80000F7
:10A9B000049520788DF80400716C10E0064614218F
:10A9C0006846FBF775FD06208DF80000201D0190FC
:10A9D0002088ADF808000495716C002901D0684604
:10A9E000884706B070BD000030B585B0040025D0A2
:10A9F00014216846FBF75CFD8BDF2046FFF7F3F977
:10AA0000012528B1616C19B18DF80050684688475E
:10AA100004F1680104F136008ADF044608280FD0EB
:10AA200074B1084808492246401AC00805EB0040A6
:10AA300006A100F0EBFC204605B030BD0E20FBE780
:10AA40000020F9E72CF5020014F5020073645F6240
:10AA50006C655F6761705F7363616E5F7374617271
:10AA6000742072657475726E656420307825780084
:10AA700000F180400068002800D00120704708B530
:10AA800000F18040002101600068009008BD0000D6
:10AA900070B50D4C0125207808B185260EE0002008
:10AAA000A06060602061E060084801F02DFA064671
:10AAB00001F042F908B901F011FA257001F006FA27
:10AAC00000B1A570304670BD18C00020A1910200F1
:10AAD00038B500258DF800506846FDF717FA084C88
:10AAE000E068401EE060E06828B901F0EFF910B9B5
:10AAF00001F040FAA5709DF80000FDF72BFA38BD73
:10AB000018C00020F8B5134D0446A878002648B1B7
:10AB100014B16168012088478DF800606846FDF730
:10AB2000F5F90EE08DF800606846FDF7EFF924B105
:10AB3000084821461030FFF762F9E86808B901F0CB
:10AB4000F3F9E868401CE8609DF80000FDF702FAA0
:10AB5000F8BD000018C0002000B9014801F0BABBE0
:10AB6000A8EA0200F0B505460478154889B01646F3
:10AB700040F82420124A0869121DA2F1080742F881
:10AB80002400487F385520226846FBF778FC04945F
:10AB90002878385C48B10EB10A4A00E000226946C4
:10ABA000281D01F095FD09B0F0BD0EB1064A00E088
:10ABB0000022694605F10C0001F03EFCF3E70000BD
:10ABC000A4B30020D9E302007DE2020030B4037890
:10ABD000054CE35C1BB130BC001D01F0AFBD30BCC7
:10ABE0000C3001F093BC0000A0B3002030B4037817
:10ABF000054CE35C1BB130BC001D01F021BE30BC34
:10AC00000C3001F0F9BC0000A0B300200FB408B56F
:10AC10000399002904D004AA00926A4600F00FF8B4
:10AC200001B05DF814FB10B582680446002A05D017
:10AC3000D4E90403216898470020A06010BD2DE9E5
:10AC4000FC4791460C00804676D014F8011B39B1C0
:10AC500025290ED04046FEF7E7F820780028F4D1E9
:10AC600098F80C00002867D04046BDE8FC47FFF785
:10AC7000DABF0020012221782B291BD02D2902D0F8
:10AC8000302908D102E040F0010001E040F002006C
:10AC9000641C002AEFD100252A290ED02178A1F1C9
:10ACA00030020A2A11D205EB850201EB4205641C31
:10ACB000303DF1E740F00400EAE7D9F800100B1D41
:10ACC000C9F800300968641C0D44217800232E293E
:10ACD0000BD114F8011FA1F130020A2A05D203EBAF
:10ACE000830201EB4203303BF3E76C290DD0682966
:10ACF0000BD0692921D00BDC252918D0582931D057
:10AD000063290ED0642915D117E014F8011FECE770
:10AD1000702969D0732932D075291BD0782909D1BF
:10AD200020E0D9F80000011DC9F800100178404664
:10AD3000FEF77AF8641C90E76CE0D9F800100A1D61
:10AD4000C9F800200968CDE900500A224046FEF704
:10AD50004FFFEFE7D9F800100A1DC9F80020096875
:10AD60000A2206E0D9F800100A1DC9F80020096877
:10AD70001022CDE90050404603F0D0FBDAE7D9F8C5
:10AD8000001000270A1DC9F800200E68C00705D171
:10AD900012E04046761C7F1CFEF746F83178002909
:10ADA000F7D104E0202140466D1EFEF73DF8BD427C
:10ADB000C0D9002DF6D1BDE74EB13046FBF783FB7D
:10ADC000074604E0202140466D1EFEF72DF8BD42E7
:10ADD00006D9002DF6D103E04046761CFEF724F894
:10ADE00031780029F8D1A5E7D9F80000011DC9F88C
:10ADF0000010056830214046FEF716F878214046DD
:10AE0000FEF712F808200021CDE9000103461022C8
:10AE10002946B0E7BDE8FC8770B541EA4201DDE9AB
:10AE200004564FF0A04441EA830141EA052104EBB6
:10AE3000800041EA0641C0F8001770BD70B541EAD4
:10AE40004201DDE904564FF0A04441EA830141EAA2
:10AE5000052104EB800041EA0641C0F8001770BDEF
:10AE600070B541EA4201DDE904564FF0A04441EAE1
:10AE7000830141EA052104EB800041EA0641C0F864
:10AE8000001770BD70B541EA4201DDE904564FF08C
:10AE9000A04441EA830141EA052104EB800041EA34
:10AEA0000641C0F8001770BD70B541EA4201DDE906
:10AEB00004564FF0A04441EA830141EA052104EB26
:10AEC000800041EA0641C0F8001770BD1CB50022A1
:10AED0000B46009211460192FFF7C2FF1CBD1CB544
:10AEE00000220B46009211460192FFF7CBFF1CBDDA
:10AEF0001CB5002100910B46012201911146FFF77C
:10AF0000AFFF1CBD1CB5002100910B460122019131
:10AF10001146FFF7B7FF1CBD4FF0A04202EB8000C7
:10AF2000D0F8002722F44032C0F80027D0F80027DC
:10AF300042EA0141C0F800177047000038B5094BDC
:10AF400044181B6800936B4608E000BF53F82010BC
:10AF5000D1F8205520C2C1F82055401C8442F5D8B4
:10AF600038BD000000E802004FF0A04221B10121ED
:10AF70008140C2F81815704702EB80000021C0F82C
:10AF8000001770471CB531B14FF0A041012282403B
:10AF9000C1F818251CBD002100910B460A460191FD
:10AFA000FFF782FF1CBD42094FF0000100D1491E8E
:10AFB00000F01F00012282400A4201D001207047A8
:10AFC000002070474FF0A041D1F81015C14001F0AA
:10AFD0000100704701224FF0A043824011B1C3F835
:10AFE00008257047C3F80C25704701224FF0A04395
:10AFF000824011B1C3F808257047C3F80C2570478B
:10B0000001224FF0A043824011B1C3F808257047D8
:10B01000C3F80C2570470000034908B50844002117
:10B0200001600068009008BD00600040024940587F
:10B03000012800D0002070470060004030B5154A5C
:10B0400001460020D2F8104423460AE0DB681D794F
:10B05000854205D1401C0A28F6DB4FF0FF3030BD99
:10B060001B68002BF2D1431CF9D0CB681871D2F8C1
:10B07000103443B1DB68CC681B682360D2F810241D
:10B08000D268116030BDC2F81014C96800220A608D
:10B0900030BD0000F0C300207047FBF7CFBF704702
:10B0A00008B5034A00924023024A00F005F808BDA3
:10B0B000E9D8020058C20020F0B595B01C461546EC
:10B0C0000F4608461A9E00F00DFB182109A8FBF751
:10B0D000EFF90E96CDE909540023082203A938465A
:10B0E00000F015FB05980690BDF81000ADF81C00A7
:10B0F000BDF81200ADF81E0000208DF82100039865
:10B10000082600F00300012802D0022818D032E0FF
:10B1100003983346850AC0F3C2008DF820000398D7
:10B120000FA9C0F38314A200384600F0F0FA09A872
:10B13000009006AB22460FA9284600F02FFA1AE02D
:10B140000398840DC0F3C2008DF82000082C01D2B2
:10B15000254600E0082533462A460FA9384600F068
:10B16000D6FA2E44641B09AB06AA29460FA800F0A4
:10B170007DF9002CEAD1384600F0BAFA15B0F0BDDE
:10B180000A4A012902EBC00007D0022907D003298F
:10B1900007D0042907D00020704702207047042000
:10B1A00070470079704740797047000014F502003D
:10B1B00010B5FFF772FF04210348FFF73FFF024974
:10B1C0000120C968487110BD04F502002DE9F04F57
:10B1D0008DB0FDF741FE18B100200DB0BDE8F08F35
:10B1E0007E4C4FF0000BC4F818B4BFF34F8F7C496E
:10B1F000A06802900D68D846284004EB80000BE060
:10B20000D4F8180470B961680298814201D8A1602D
:10B21000E2E7284004EB80000C3002A9FEF780FD35
:10B220000028EDD1002005AA029901EA050304EBEC
:10B230008303491CDB6842F82030401C029102283D
:10B24000F2D3059800F00300022802D001284DD067
:10B25000AAE005985022810D8946B2EB905F00D894
:10B2600050210E4666F39F50059008315D4800F06E
:10B27000F0F9070078D000F035FA4346082205A916
:10B28000384600F04CFA029908F1080A2940681A79
:10B290008000001D864222D9504D0C3530B1C2B21B
:10B2A00004EB8101301A90460C3104E02946F2B2D9
:10B2B000002590462846C6B25346384600F02FFA7D
:10B2C0000AEB080325B132462946384600F027FA32
:10B2D000029909F1030001EB900002903BE004EBBE
:10B2E00081015346324638460C31EFE70598C0F3EA
:10B2F0008310062800D30620059960F38911C1F355
:10B300008310801C05918100364800F0A2F90700E7
:10B310004AD000F0E7F94346082205A9384600F074
:10B32000FEF908F1080800260FE00298434600EAFB
:10B330000501401C04EB81010290042238460C31C7
:10B3400000F0EDF908F10408761C0598C0F38310AD
:10B35000B042EAD847B1D4F81054D4F8180478B100
:10B36000384600F0C5F934E01EE0E868407901286D
:10B3700004D12A682846394612689047E86805686B
:10B38000002DF2D1384600F0B3F98DF800B06846D0
:10B39000FCF7BCFDD4F8180408B90298A0609DF829
:10B3A0000000FCF7D7FD14E0D4F8104405E0216854
:10B3B000204689688847E0680468002CF7D10A486D
:10B3C0000A49401AC008022101EB004008A100F020
:10B3D00019F8FDF741FD80F00100FEE6F0C3002002
:10B3E0003CB40020D8F50200A4F5020014F50200D8
:10B3F0004261636B656E647320666C757368656427
:10B400000000000000231A4602F03ABB08B50123F1
:10B4100000926A4602F034FB08BD1CB5CDE900235A
:10B4200002236A4602F02CFB1CBD3EB5069C8DE84B
:10B430001C0003236A4602F023FB3EBD7FB5DDE915
:10B4400008458DE83C0004236A4602F019FB7FBDE5
:10B45000F0B587B00DF1300C9CE8F0008DE8FC00F1
:10B4600006236A4602F00CFB07B0F0BD2DE9F04759
:10B470000E4680461C469246082940D894F80C9007
:10B48000002020731946104601F054FD0025B542F6
:10B4900006D218F805201BA12046FFF7B7FB03E0F2
:10B4A0001AA12046FFF7B2FB6D1C082DEFD318A19F
:10B4B0002046FFF7ABFB0025B54212D218F8057005
:10B4C0007E2F08D8FAF7CEFF0068C05D10F03E0F5F
:10B4D00001D03A4600E02E220EA12046FFF796FB4F
:10B4E00003E00DA12046FFF791FB6D1C082DE3D36F
:10B4F00001222146504601F0FFFC84F80C90BDE883
:10B50000F087000020253032780000002020200045
:10B510007C0000002563000020000000064910B5F3
:10B5200000200870054800F0E1F8002803D1044825
:10B5300000F011FA002010BDF0C30020D8F5020081
:10B54000F8E9020002480349401AC00870470000A9
:10B55000C4F5020014F5020013B56846FEF7FEFDBF
:10B5600008B100201CBD0248009950F831001CBDF4
:10B5700014F5020070B508480125D0F81044057094
:10B5800007E0E06845712168204649688847E0681F
:10B590000468002CF5D170BDF0C300202DE9FF47F1
:10B5A00081460C9D00200C462F7B2873984616463A
:10B5B0002946184601F0BEFC072E42D2DFE806F00D
:10B5C00004090F161F2A360049462846FFF71EFBBE
:10B5D00037E0494628462268FFF718FB31E0D4E9F6
:10B5E000002349462846FFF711FB2AE0A068009097
:10B5F000D4E9002349462846FFF708FB21E0D4E9B7
:10B600000201CDE90001D4E9002349462846FFF7AD
:10B61000FDFA16E004F1080007C88DE80700D4E938
:10B62000002349462846FFF7F1FA0AE004F1080032
:10B630000FC88DE80F00D4E9002349462846FFF7DC
:10B64000E5FA00222946404601F056FC2F73BDE87A
:10B65000FF872DE9F041058A80462D1F4819C01C3F
:10B66000B0FBF5F0C6B24046FEF7F1FD041E19D05E
:10B670000020207101206071E58000272546761E9C
:10B68000C4F800800BE04046FEF7E1FD60B161794F
:10B69000491C6171286005467F1CC0F80080B742D4
:10B6A000F1D32046BDE8F081204600F002F80020EA
:10B6B000F8E72DE9F041457901466B1E002201E0D3
:10B6C0000968521C9A42FBD30F680146002605E028
:10B6D00038460C68FEF7DDFD2146761CAE42F7D3F6
:10B6E000BDE8F0810121001DFEF795BDFEF7E9BD23
:10B6F00010B504460121001DFEF7A3FD10F0FF0F59
:10B7000004D12046BDE81040FFF7D3BF10BD1CB5E3
:10B7100001920122009201AAFEF7E0FC1CBD1CB5BB
:10B7200001920022009201AAFEF7D8FC1CBD000085
:10B73000064910B500204870091D0860BFF35F8FEF
:10B740000349044800F01CFB002010BD24B4002075
:10B7500080E802001CC2002008B500208DF800001F
:10B760006846FCF7D3FBF1EE100A20F09F00E1EEF3
:10B77000100ABFF35F8F08494020C1F880029DF88E
:10B780000000FCF7E7FB00F0D7FA08B141DF08BD85
:10B7900020BF40BF20BF08BD04E000E070B50446F4
:10B7A0000C480121FEF742FDBFF35F8F0025002802
:10B7B00009D10120074E042C08D0311F4A781AB154
:10B7C000BFF35F8F356070BD0C70487002F0C4F835
:10B7D000F6E7000028B400202DE9F84304460027CE
:10B7E00090460E468DF800706846FCF78FFB2046A9
:10B7F00000F039F838B105279DF80000FCF7AAFBE6
:10B800003846BDE8F88320680568B8F1000F05D117
:10B810000168204600F03FF821680860E268012ACC
:10B820000CD0022A0ED0042A11D06068082A13D046
:10B8300005FB02013046FAF722FEDDE76068405D55
:10B840003070D9E7606830F815003080D4E7606860
:10B8500050F825003060CFE700EBC501D1E90001C9
:10B86000C6E90001C8E7016808684968884201D153
:10B87000012070470020704701680A6849688068A5
:10B88000884201D9491C00E00021914201D10120E8
:10B890007047002070478068884201D9481C704773
:10B8A000002070472DE9F84304464FF000080E468B
:10B8B0008DF800806846FCF729FB2046FFF7DCFF87
:10B8C00007000AD0207C40B14FF004089DF800002A
:10B8D000FCF740FB4046BDE8F883206845684168B6
:10B8E0002046FFF7D8FF2168486037B1206801681B
:10B8F0002046FFF7D0FF21680860E268012A14D0D3
:10B90000022A16D0042A19D0082A1CD060683146B1
:10B9100005FB0200FAF7B3FD204601F047FC216861
:10B920008A688242D2D28860D0E761683078485510
:10B93000F2E76168308821F81500EDE7616830684A
:10B9400041F82500E8E7D6E90001626802EBC5028C
:10B95000C2E90001E0E7826800219160826811611C
:10B96000826851618268D16082685160806801603C
:10B97000704708B5002242504058009008BD0000B2
:10B98000024A1060101D0160704700002C760040D4
:10B99000030103481844C0F81425C0F81015704777
:10B9A0000070004002494058002800D00120704734
:10B9B00000700040034908B5084400220260006896
:10B9C000009008BD0070004020B103490968016083
:10B9D000002070470E2070477CEA02002DE9FE43EC
:10B9E00007460E460846FFF7EFFF00287DD10025E9
:10B9F00000958DF800700A208DF802000195062050
:10BA0000ADF80400029569462020326869DF3849A4
:10BA1000384A4FF00108891AC90808EB014430B1CF
:10BA200000F01CFA024620463349FFF7EFFC009570
:10BA300005208DF801008DF80200019502958DF822
:10BA4000038069464020326869DF30B100F006FAB1
:10BA5000024620462949FFF7D9FC00958DF8007071
:10BA6000F720ADF80200019502956946232032685F
:10BA700069DF30B100F0F2F9024620462049FFF7B5
:10BA8000C5FC0095019502958DF80080694601205E
:10BA9000326869DF30B100F0E1F902462046194909
:10BAA000FFF7B4FC4FF4B060009001950295694631
:10BAB000A120326869DF30B100F0D0F9024620469B
:10BAC0001149FFF7A3FC0095019502958DF80050F0
:10BAD0006946A020326869DF30B100F0BFF9024644
